{
  "_format": "hh-sol-artifact-1",
  "contractName": "Exchange",
  "sourceName": "contracts/Exchange.sol",
  "abi": [
    {
      "inputs": [
        {
          "internalType": "address",
          "name": "tokenAddress",
          "type": "address"
        },
        {
          "internalType": "address",
          "name": "verifierAddress",
          "type": "address"
        }
      ],
      "stateMutability": "nonpayable",
      "type": "constructor"
    },
    {
      "anonymous": false,
      "inputs": [
        {
          "indexed": true,
          "internalType": "address",
          "name": "user",
          "type": "address"
        },
        {
          "indexed": false,
          "internalType": "uint256",
          "name": "amount",
          "type": "uint256"
        }
      ],
      "name": "Deposit",
      "type": "event"
    },
    {
      "anonymous": false,
      "inputs": [
        {
          "indexed": true,
          "internalType": "address",
          "name": "user",
          "type": "address"
        },
        {
          "indexed": false,
          "internalType": "uint256",
          "name": "amount",
          "type": "uint256"
        }
      ],
      "name": "Withdraw",
      "type": "event"
    },
    {
      "inputs": [
        {
          "internalType": "address",
          "name": "",
          "type": "address"
        }
      ],
      "name": "balances",
      "outputs": [
        {
          "internalType": "uint256",
          "name": "",
          "type": "uint256"
        }
      ],
      "stateMutability": "view",
      "type": "function"
    },
    {
      "inputs": [
        {
          "internalType": "uint256",
          "name": "amount",
          "type": "uint256"
        }
      ],
      "name": "deposit",
      "outputs": [],
      "stateMutability": "nonpayable",
      "type": "function"
    },
    {
      "inputs": [
        {
          "internalType": "address",
          "name": "user",
          "type": "address"
        }
      ],
      "name": "getBalance",
      "outputs": [
        {
          "internalType": "uint256",
          "name": "",
          "type": "uint256"
        }
      ],
      "stateMutability": "view",
      "type": "function"
    },
    {
      "inputs": [],
      "name": "token",
      "outputs": [
        {
          "internalType": "contract EnerZ",
          "name": "",
          "type": "address"
        }
      ],
      "stateMutability": "view",
      "type": "function"
    },
    {
      "inputs": [],
      "name": "verifier",
      "outputs": [
        {
          "internalType": "contract Groth16Verifier",
          "name": "",
          "type": "address"
        }
      ],
      "stateMutability": "view",
      "type": "function"
    },
    {
      "inputs": [
        {
          "internalType": "uint256[2]",
          "name": "a",
          "type": "uint256[2]"
        },
        {
          "internalType": "uint256[2][2]",
          "name": "b",
          "type": "uint256[2][2]"
        },
        {
          "internalType": "uint256[2]",
          "name": "c",
          "type": "uint256[2]"
        },
        {
          "internalType": "uint256[1]",
          "name": "input",
          "type": "uint256[1]"
        }
      ],
      "name": "verifyBalanceProof",
      "outputs": [
        {
          "internalType": "bool",
          "name": "",
          "type": "bool"
        }
      ],
      "stateMutability": "view",
      "type": "function"
    },
    {
      "inputs": [
        {
          "internalType": "uint256",
          "name": "amount",
          "type": "uint256"
        }
      ],
      "name": "withdraw",
      "outputs": [],
      "stateMutability": "nonpayable",
      "type": "function"
    }
  ],
  "bytecode": "0x608060405234801561001057600080fd5b506040516112e23803806112e283398181016040528101906100329190610126565b600160008190555081600160006101000a81548173ffffffffffffffffffffffffffffffffffffffff021916908373ffffffffffffffffffffffffffffffffffffffff16021790555080600260006101000a81548173ffffffffffffffffffffffffffffffffffffffff021916908373ffffffffffffffffffffffffffffffffffffffff1602179055505050610166565b600080fd5b600073ffffffffffffffffffffffffffffffffffffffff82169050919050565b60006100f3826100c8565b9050919050565b610103816100e8565b811461010e57600080fd5b50565b600081519050610120816100fa565b92915050565b6000806040838503121561013d5761013c6100c3565b5b600061014b85828601610111565b925050602061015c85828601610111565b9150509250929050565b61116d806101756000396000f3fe608060405234801561001057600080fd5b506004361061007d5760003560e01c8063b6b55f251161005b578063b6b55f25146100ec578063f29813f114610108578063f8b2cb4f14610138578063fc0c546a146101685761007d565b806327e235e3146100825780632b7ac3f3146100b25780632e1a7d4d146100d0575b600080fd5b61009c60048036038101906100979190610757565b610186565b6040516100a9919061079d565b60405180910390f35b6100ba61019e565b6040516100c79190610817565b60405180910390f35b6100ea60048036038101906100e5919061085e565b6101c4565b005b6101066004803603810190610101919061085e565b6103dc565b005b610122600480360381019061011d9190610b34565b610574565b60405161012f9190610bb8565b60405180910390f35b610152600480360381019061014d9190610757565b610622565b60405161015f919061079d565b60405180910390f35b61017061066b565b60405161017d9190610bf4565b60405180910390f35b60036020528060005260406000206000915090505481565b600260009054906101000a900473ffffffffffffffffffffffffffffffffffffffff1681565b6101cc610691565b80600360003373ffffffffffffffffffffffffffffffffffffffff1673ffffffffffffffffffffffffffffffffffffffff16815260200190815260200160002054101561024e576040517f08c379a000000000000000000000000000000000000000000000000000000000815260040161024590610c6c565b60405180910390fd5b80600360003373ffffffffffffffffffffffffffffffffffffffff1673ffffffffffffffffffffffffffffffffffffffff168152602001908152602001600020600082825461029d9190610cbb565b92505081905550600160009054906101000a900473ffffffffffffffffffffffffffffffffffffffff1673ffffffffffffffffffffffffffffffffffffffff1663a9059cbb33836040518363ffffffff1660e01b8152600401610301929190610cfe565b6020604051808303816000875af1158015610320573d6000803e3d6000fd5b505050506040513d601f19601f820116820180604052508101906103449190610d53565b610383576040517f08c379a000000000000000000000000000000000000000000000000000000000815260040161037a90610dcc565b60405180910390fd5b3373ffffffffffffffffffffffffffffffffffffffff167f884edad9ce6fa2440d8a54cc123490eb96d2768479d49ff9c7366125a9424364826040516103c9919061079d565b60405180910390a26103d96106e0565b50565b6103e4610691565b600160009054906101000a900473ffffffffffffffffffffffffffffffffffffffff1673ffffffffffffffffffffffffffffffffffffffff166323b872dd3330846040518463ffffffff1660e01b815260040161044393929190610dec565b6020604051808303816000875af1158015610462573d6000803e3d6000fd5b505050506040513d601f19601f820116820180604052508101906104869190610d53565b6104c5576040517f08c379a00000000000000000000000000000000000000000000000000000000081526004016104bc90610dcc565b60405180910390fd5b80600360003373ffffffffffffffffffffffffffffffffffffffff1673ffffffffffffffffffffffffffffffffffffffff16815260200190815260200160002060008282546105149190610e23565b925050819055503373ffffffffffffffffffffffffffffffffffffffff167fe1fffcc4923d04b559f4d29a8bfc6cda04eb5b0d3c460751c2402c5c5cc9109c82604051610561919061079d565b60405180910390a26105716106e0565b50565b6000600260009054906101000a900473ffffffffffffffffffffffffffffffffffffffff1673ffffffffffffffffffffffffffffffffffffffff166343753b4d868686866040518563ffffffff1660e01b81526004016105d79493929190611084565b602060405180830381865afa1580156105f4573d6000803e3d6000fd5b505050506040513d601f19601f820116820180604052508101906106189190610d53565b9050949350505050565b6000600360008373ffffffffffffffffffffffffffffffffffffffff1673ffffffffffffffffffffffffffffffffffffffff168152602001908152602001600020549050919050565b600160009054906101000a900473ffffffffffffffffffffffffffffffffffffffff1681565b6002600054036106d6576040517f08c379a00000000000000000000000000000000000000000000000000000000081526004016106cd90611117565b60405180910390fd5b6002600081905550565b6001600081905550565b6000604051905090565b600080fd5b600073ffffffffffffffffffffffffffffffffffffffff82169050919050565b6000610724826106f9565b9050919050565b61073481610719565b811461073f57600080fd5b50565b6000813590506107518161072b565b92915050565b60006020828403121561076d5761076c6106f4565b5b600061077b84828501610742565b91505092915050565b6000819050919050565b61079781610784565b82525050565b60006020820190506107b2600083018461078e565b92915050565b6000819050919050565b60006107dd6107d86107d3846106f9565b6107b8565b6106f9565b9050919050565b60006107ef826107c2565b9050919050565b6000610801826107e4565b9050919050565b610811816107f6565b82525050565b600060208201905061082c6000830184610808565b92915050565b61083b81610784565b811461084657600080fd5b50565b60008135905061085881610832565b92915050565b600060208284031215610874576108736106f4565b5b600061088284828501610849565b91505092915050565b600080fd5b6000601f19601f8301169050919050565b7f4e487b7100000000000000000000000000000000000000000000000000000000600052604160045260246000fd5b6108d982610890565b810181811067ffffffffffffffff821117156108f8576108f76108a1565b5b80604052505050565b600061090b6106ea565b905061091782826108d0565b919050565b600067ffffffffffffffff821115610937576109366108a1565b5b602082029050919050565b600080fd5b600061095a6109558461091c565b610901565b9050806020840283018581111561097457610973610942565b5b835b8181101561099d57806109898882610849565b845260208401935050602081019050610976565b5050509392505050565b600082601f8301126109bc576109bb61088b565b5b60026109c9848285610947565b91505092915050565b600067ffffffffffffffff8211156109ed576109ec6108a1565b5b602082029050919050565b6000610a0b610a06846109d2565b610901565b90508060408402830185811115610a2557610a24610942565b5b835b81811015610a4e5780610a3a88826109a7565b845260208401935050604081019050610a27565b5050509392505050565b600082601f830112610a6d57610a6c61088b565b5b6002610a7a8482856109f8565b91505092915050565b600067ffffffffffffffff821115610a9e57610a9d6108a1565b5b602082029050919050565b6000610abc610ab784610a83565b610901565b90508060208402830185811115610ad657610ad5610942565b5b835b81811015610aff5780610aeb8882610849565b845260208401935050602081019050610ad8565b5050509392505050565b600082601f830112610b1e57610b1d61088b565b5b6001610b2b848285610aa9565b91505092915050565b6000806000806101208587031215610b4f57610b4e6106f4565b5b6000610b5d878288016109a7565b9450506040610b6e87828801610a58565b93505060c0610b7f878288016109a7565b925050610100610b9187828801610b09565b91505092959194509250565b60008115159050919050565b610bb281610b9d565b82525050565b6000602082019050610bcd6000830184610ba9565b92915050565b6000610bde826107e4565b9050919050565b610bee81610bd3565b82525050565b6000602082019050610c096000830184610be5565b92915050565b600082825260208201905092915050565b7f496e73756666696369656e742062616c616e6365000000000000000000000000600082015250565b6000610c56601483610c0f565b9150610c6182610c20565b602082019050919050565b60006020820190508181036000830152610c8581610c49565b9050919050565b7f4e487b7100000000000000000000000000000000000000000000000000000000600052601160045260246000fd5b6000610cc682610784565b9150610cd183610784565b9250828203905081811115610ce957610ce8610c8c565b5b92915050565b610cf881610719565b82525050565b6000604082019050610d136000830185610cef565b610d20602083018461078e565b9392505050565b610d3081610b9d565b8114610d3b57600080fd5b50565b600081519050610d4d81610d27565b92915050565b600060208284031215610d6957610d686106f4565b5b6000610d7784828501610d3e565b91505092915050565b7f5472616e73666572206661696c65640000000000000000000000000000000000600082015250565b6000610db6600f83610c0f565b9150610dc182610d80565b602082019050919050565b60006020820190508181036000830152610de581610da9565b9050919050565b6000606082019050610e016000830186610cef565b610e0e6020830185610cef565b610e1b604083018461078e565b949350505050565b6000610e2e82610784565b9150610e3983610784565b9250828201905080821115610e5157610e50610c8c565b5b92915050565b600060029050919050565b600081905092915050565b6000819050919050565b610e8081610784565b82525050565b6000610e928383610e77565b60208301905092915050565b6000602082019050919050565b610eb481610e57565b610ebe8184610e62565b9250610ec982610e6d565b8060005b83811015610efa578151610ee18782610e86565b9650610eec83610e9e565b925050600181019050610ecd565b505050505050565b600060029050919050565b600081905092915050565b6000819050919050565b600081905092915050565b610f3681610e57565b610f408184610f22565b9250610f4b82610e6d565b8060005b83811015610f7c578151610f638782610e86565b9650610f6e83610e9e565b925050600181019050610f4f565b505050505050565b6000610f908383610f2d565b60408301905092915050565b6000602082019050919050565b610fb281610f02565b610fbc8184610f0d565b9250610fc782610f18565b8060005b83811015610ff8578151610fdf8782610f84565b9650610fea83610f9c565b925050600181019050610fcb565b505050505050565b600060019050919050565b600081905092915050565b6000819050919050565b6000602082019050919050565b61103681611000565b611040818461100b565b925061104b82611016565b8060005b8381101561107c5781516110638782610e86565b965061106e83611020565b92505060018101905061104f565b505050505050565b60006101208201905061109a6000830187610eab565b6110a76040830186610fa9565b6110b460c0830185610eab565b6110c261010083018461102d565b95945050505050565b7f5265656e7472616e637947756172643a207265656e7472616e742063616c6c00600082015250565b6000611101601f83610c0f565b915061110c826110cb565b602082019050919050565b60006020820190508181036000830152611130816110f4565b905091905056fea26469706673582212201a1b7d79dced8a761326ef89b4d862a5a09d142736f4eb11da84a155a7f450b464736f6c634300081c0033",
  "linkReferences": {},
  "deployedLinkReferences": {}
}