{
  "_format": "hh-sol-artifact-1",
  "contractName": "Exchange",
  "sourceName": "contracts/Exchange.sol",
  "abi": [
    {
      "inputs": [
        {
          "internalType": "address",
          "name": "tokenAddress",
          "type": "address"
        }
      ],
      "stateMutability": "nonpayable",
      "type": "constructor"
    },
    {
      "inputs": [
        {
          "internalType": "address",
          "name": "",
          "type": "address"
        }
      ],
      "name": "balances",
      "outputs": [
        {
          "internalType": "uint256",
          "name": "",
          "type": "uint256"
        }
      ],
      "stateMutability": "view",
      "type": "function"
    },
    {
      "inputs": [
        {
          "internalType": "uint256",
          "name": "amount",
          "type": "uint256"
        }
      ],
      "name": "deposit",
      "outputs": [],
      "stateMutability": "nonpayable",
      "type": "function"
    },
    {
      "inputs": [
        {
          "internalType": "address",
          "name": "user",
          "type": "address"
        }
      ],
      "name": "getBalance",
      "outputs": [
        {
          "internalType": "uint256",
          "name": "",
          "type": "uint256"
        }
      ],
      "stateMutability": "view",
      "type": "function"
    },
    {
      "inputs": [],
      "name": "token",
      "outputs": [
        {
          "internalType": "contract EnerZ",
          "name": "",
          "type": "address"
        }
      ],
      "stateMutability": "view",
      "type": "function"
    },
    {
      "inputs": [
        {
          "internalType": "uint256",
          "name": "amount",
          "type": "uint256"
        }
      ],
      "name": "withdraw",
      "outputs": [],
      "stateMutability": "nonpayable",
      "type": "function"
    }
  ],
  "bytecode": "0x608060405234801561001057600080fd5b506040516109bf3803806109bf833981810160405281019061003291906100db565b806000806101000a81548173ffffffffffffffffffffffffffffffffffffffff021916908373ffffffffffffffffffffffffffffffffffffffff16021790555050610108565b600080fd5b600073ffffffffffffffffffffffffffffffffffffffff82169050919050565b60006100a88261007d565b9050919050565b6100b88161009d565b81146100c357600080fd5b50565b6000815190506100d5816100af565b92915050565b6000602082840312156100f1576100f0610078565b5b60006100ff848285016100c6565b91505092915050565b6108a8806101176000396000f3fe608060405234801561001057600080fd5b50600436106100575760003560e01c806327e235e31461005c5780632e1a7d4d1461008c578063b6b55f25146100a8578063f8b2cb4f146100c4578063fc0c546a146100f4575b600080fd5b610076600480360381019061007191906104ea565b610112565b6040516100839190610530565b60405180910390f35b6100a660048036038101906100a19190610577565b61012a565b005b6100c260048036038101906100bd9190610577565b6102e2565b005b6100de60048036038101906100d991906104ea565b61041a565b6040516100eb9190610530565b60405180910390f35b6100fc610463565b6040516101099190610603565b60405180910390f35b60016020528060005260406000206000915090505481565b80600160003373ffffffffffffffffffffffffffffffffffffffff1673ffffffffffffffffffffffffffffffffffffffff1681526020019081526020016000205410156101ac576040517f08c379a00000000000000000000000000000000000000000000000000000000081526004016101a39061067b565b60405180910390fd5b80600160003373ffffffffffffffffffffffffffffffffffffffff1673ffffffffffffffffffffffffffffffffffffffff16815260200190815260200160002060008282546101fb91906106ca565b9250508190555060008054906101000a900473ffffffffffffffffffffffffffffffffffffffff1673ffffffffffffffffffffffffffffffffffffffff1663a9059cbb33836040518363ffffffff1660e01b815260040161025d92919061070d565b6020604051808303816000875af115801561027c573d6000803e3d6000fd5b505050506040513d601f19601f820116820180604052508101906102a0919061076e565b6102df576040517f08c379a00000000000000000000000000000000000000000000000000000000081526004016102d6906107e7565b60405180910390fd5b50565b60008054906101000a900473ffffffffffffffffffffffffffffffffffffffff1673ffffffffffffffffffffffffffffffffffffffff166323b872dd3330846040518463ffffffff1660e01b815260040161033f93929190610807565b6020604051808303816000875af115801561035e573d6000803e3d6000fd5b505050506040513d601f19601f82011682018060405250810190610382919061076e565b6103c1576040517f08c379a00000000000000000000000000000000000000000000000000000000081526004016103b8906107e7565b60405180910390fd5b80600160003373ffffffffffffffffffffffffffffffffffffffff1673ffffffffffffffffffffffffffffffffffffffff1681526020019081526020016000206000828254610410919061083e565b9250508190555050565b6000600160008373ffffffffffffffffffffffffffffffffffffffff1673ffffffffffffffffffffffffffffffffffffffff168152602001908152602001600020549050919050565b60008054906101000a900473ffffffffffffffffffffffffffffffffffffffff1681565b600080fd5b600073ffffffffffffffffffffffffffffffffffffffff82169050919050565b60006104b78261048c565b9050919050565b6104c7816104ac565b81146104d257600080fd5b50565b6000813590506104e4816104be565b92915050565b600060208284031215610500576104ff610487565b5b600061050e848285016104d5565b91505092915050565b6000819050919050565b61052a81610517565b82525050565b60006020820190506105456000830184610521565b92915050565b61055481610517565b811461055f57600080fd5b50565b6000813590506105718161054b565b92915050565b60006020828403121561058d5761058c610487565b5b600061059b84828501610562565b91505092915050565b6000819050919050565b60006105c96105c46105bf8461048c565b6105a4565b61048c565b9050919050565b60006105db826105ae565b9050919050565b60006105ed826105d0565b9050919050565b6105fd816105e2565b82525050565b600060208201905061061860008301846105f4565b92915050565b600082825260208201905092915050565b7f496e73756666696369656e742062616c616e6365000000000000000000000000600082015250565b600061066560148361061e565b91506106708261062f565b602082019050919050565b6000602082019050818103600083015261069481610658565b9050919050565b7f4e487b7100000000000000000000000000000000000000000000000000000000600052601160045260246000fd5b60006106d582610517565b91506106e083610517565b92508282039050818111156106f8576106f761069b565b5b92915050565b610707816104ac565b82525050565b600060408201905061072260008301856106fe565b61072f6020830184610521565b9392505050565b60008115159050919050565b61074b81610736565b811461075657600080fd5b50565b60008151905061076881610742565b92915050565b60006020828403121561078457610783610487565b5b600061079284828501610759565b91505092915050565b7f5472616e73666572206661696c65640000000000000000000000000000000000600082015250565b60006107d1600f8361061e565b91506107dc8261079b565b602082019050919050565b60006020820190508181036000830152610800816107c4565b9050919050565b600060608201905061081c60008301866106fe565b61082960208301856106fe565b6108366040830184610521565b949350505050565b600061084982610517565b915061085483610517565b925082820190508082111561086c5761086b61069b565b5b9291505056fea2646970667358221220fa9d3182a01fa516dde29f3054f3e99210a64ad37e03d9eef5760af30a8ad3ef64736f6c634300081c0033",
  "linkReferences": {},
  "deployedLinkReferences": {}
}