{"contracts/Groth16Verifier.sol":{"Groth16Verifier":{"abi":[{"inputs":[{"internalType":"uint256[2]","name":"_pA","type":"uint256[2]"},{"internalType":"uint256[2][2]","name":"_pB","type":"uint256[2][2]"},{"internalType":"uint256[2]","name":"_pC","type":"uint256[2]"},{"internalType":"uint256[1]","name":"_pubSignals","type":"uint256[1]"}],"name":"verifyProof","outputs":[{"internalType":"bool","name":"","type":"bool"}],"stateMutability":"view","type":"function"}],"evm":{"bytecode":{"linkReferences":{},"object":"6080604052348015600f57600080fd5b506106008061001f6000396000f3fe608060405234801561001057600080fd5b506004361061002b5760003560e01c806343753b4d14610030575b600080fd5b61004a6004803603810190610045919061052b565b610060565b60405161005791906105af565b60405180910390f35b600061048c565b7f30644e72e131a029b85045b68181585d2833e84879b9709143e1f593f00000018110610098576000805260206000f35b50565b600060405183815284602082015285604082015260408160608360076107d05a03fa9150816100ce576000805260206000f35b825160408201526020830151606082015260408360808360066107d05a03fa9150816100fe576000805260206000f35b505050505050565b600060808601600087017f1bb1ce035463c2ec0054cceb93426729bef99db5f097690f92e0d1cbfa5f234581527f1ef19517a415fba8ee20e6f81133fd0448a94ad93802fed4306c2d34f0cdcb7e60208201526101a960008801357f1b3e2eb788dcf34174809cc12f90a8cf7036c1888c15a07398936ca3fdefc13e7f19c852c21ea4cc7a4a31a115645b7fd5686e5c0233a842f44efa656e9ba266bb8461009b565b833582527f30644e72e131a029b85045b68181585d97816a916871ca8d3c208c16d87cfd4760208501357f30644e72e131a029b85045b68181585d97816a916871ca8d3c208c16d87cfd4703066020830152843560408301526020850135606083015260408501356080830152606085013560a08301527f2b8ef14e80c98fc58a56a094152f1aa0ccafd591918050708e0a9eaefbc17cbf60c08301527f080e25738da60dcee2523d868cab3622dd9ee9a984e47aaafd35e103da20cdc760e08301527f1720f82704fdb99db60836b64d1a10cb14f1a76d9e13b97db26410611ed72db56101008301527e1701870bd111d7a57d826fa763b92d1dc806104d26de2841eb1b931ab018c26101208301527f114df11eb728ebcf85fd14eefe309c647621beedb700a5726322c07faddde35f6101408301527f158808ef752aa952987a3caec2e175132928fed6f3f775e494706e28db2ee082610160830152600088015161018083015260206000018801516101a08301527f198e9393920d483a7260bfb731fb5d25f1aa493335a9e71297e485b7aef312c26101c08301527f1800deef121f1e76426a00665e5c4479674322d4f75edadd46debd5cd992f6ed6101e08301527f090689d0585ff075ec9e99ad690c3395bc4b313370b38ef355acdadcd122975b6102008301527f12c85ea5db8c6deb4aab71808dcb408fe3d1e7690c43d37b4ce6cc0166fa7daa610220830152853561024083015260208601356102608301527f219adc7dd39bbb390a7d5f097555abe0082ea95aa95800ec5f440496900ea0e76102808301527f14606fece2acaf3907e0a5c94a34bb6575d034e1b61bf591c9f7c3376338fd346102a08301527f1d4018b3f8f637f4a7fbd77ee93724a045c8da886c651fa0ba498001f1d9ac8a6102c08301527f295b8d967941319213e28c4f28e0a2fdf3b6ed804d1982e17c60b414e39f9da36102e08301526020826103008460086107d05a03fa82518116935050505095945050505050565b60405161038081016040526104a46000840135610067565b6104b1818486888a610106565b8060005260206000f35b600080fd5b600080fd5b6000819050826020600202820111156104e1576104e06104c0565b5b92915050565b600081905082604060020282011115610503576105026104c0565b5b92915050565b600081905082602060010282011115610525576105246104c0565b5b92915050565b6000806000806101208587031215610546576105456104bb565b5b6000610554878288016104c5565b9450506040610565878288016104e7565b93505060c0610576878288016104c5565b92505061010061058887828801610509565b91505092959194509250565b60008115159050919050565b6105a981610594565b82525050565b60006020820190506105c460008301846105a0565b9291505056fea2646970667358221220cf16309ee6638755ecc63696681f7f54cafe11c6826f64c59d26e6e982925c9064736f6c634300081c0033","opcodes":"PUSH1 0x80 PUSH1 0x40 MSTORE CALLVALUE DUP1 ISZERO PUSH1 0xF JUMPI PUSH1 0x0 DUP1 REVERT JUMPDEST POP PUSH2 0x600 DUP1 PUSH2 0x1F PUSH1 0x0 CODECOPY PUSH1 0x0 RETURN INVALID PUSH1 0x80 PUSH1 0x40 MSTORE CALLVALUE DUP1 ISZERO PUSH2 0x10 JUMPI PUSH1 0x0 DUP1 REVERT JUMPDEST POP PUSH1 0x4 CALLDATASIZE LT PUSH2 0x2B JUMPI PUSH1 0x0 CALLDATALOAD PUSH1 0xE0 SHR DUP1 PUSH4 0x43753B4D EQ PUSH2 0x30 JUMPI JUMPDEST PUSH1 0x0 DUP1 REVERT JUMPDEST PUSH2 0x4A PUSH1 0x4 DUP1 CALLDATASIZE SUB DUP2 ADD SWAP1 PUSH2 0x45 SWAP2 SWAP1 PUSH2 0x52B JUMP JUMPDEST PUSH2 0x60 JUMP JUMPDEST PUSH1 0x40 MLOAD PUSH2 0x57 SWAP2 SWAP1 PUSH2 0x5AF JUMP JUMPDEST PUSH1 0x40 MLOAD DUP1 SWAP2 SUB SWAP1 RETURN JUMPDEST PUSH1 0x0 PUSH2 0x48C JUMP JUMPDEST PUSH32 0x30644E72E131A029B85045B68181585D2833E84879B9709143E1F593F0000001 DUP2 LT PUSH2 0x98 JUMPI PUSH1 0x0 DUP1 MSTORE PUSH1 0x20 PUSH1 0x0 RETURN JUMPDEST POP JUMP JUMPDEST PUSH1 0x0 PUSH1 0x40 MLOAD DUP4 DUP2 MSTORE DUP5 PUSH1 0x20 DUP3 ADD MSTORE DUP6 PUSH1 0x40 DUP3 ADD MSTORE PUSH1 0x40 DUP2 PUSH1 0x60 DUP4 PUSH1 0x7 PUSH2 0x7D0 GAS SUB STATICCALL SWAP2 POP DUP2 PUSH2 0xCE JUMPI PUSH1 0x0 DUP1 MSTORE PUSH1 0x20 PUSH1 0x0 RETURN JUMPDEST DUP3 MLOAD PUSH1 0x40 DUP3 ADD MSTORE PUSH1 0x20 DUP4 ADD MLOAD PUSH1 0x60 DUP3 ADD MSTORE PUSH1 0x40 DUP4 PUSH1 0x80 DUP4 PUSH1 0x6 PUSH2 0x7D0 GAS SUB STATICCALL SWAP2 POP DUP2 PUSH2 0xFE JUMPI PUSH1 0x0 DUP1 MSTORE PUSH1 0x20 PUSH1 0x0 RETURN JUMPDEST POP POP POP POP POP POP JUMP JUMPDEST PUSH1 0x0 PUSH1 0x80 DUP7 ADD PUSH1 0x0 DUP8 ADD PUSH32 0x1BB1CE035463C2EC0054CCEB93426729BEF99DB5F097690F92E0D1CBFA5F2345 DUP2 MSTORE PUSH32 0x1EF19517A415FBA8EE20E6F81133FD0448A94AD93802FED4306C2D34F0CDCB7E PUSH1 0x20 DUP3 ADD MSTORE PUSH2 0x1A9 PUSH1 0x0 DUP9 ADD CALLDATALOAD PUSH32 0x1B3E2EB788DCF34174809CC12F90A8CF7036C1888C15A07398936CA3FDEFC13E PUSH32 0x19C852C21EA4CC7A4A31A115645B7FD5686E5C0233A842F44EFA656E9BA266BB DUP5 PUSH2 0x9B JUMP JUMPDEST DUP4 CALLDATALOAD DUP3 MSTORE PUSH32 0x30644E72E131A029B85045B68181585D97816A916871CA8D3C208C16D87CFD47 PUSH1 0x20 DUP6 ADD CALLDATALOAD PUSH32 0x30644E72E131A029B85045B68181585D97816A916871CA8D3C208C16D87CFD47 SUB MOD PUSH1 0x20 DUP4 ADD MSTORE DUP5 CALLDATALOAD PUSH1 0x40 DUP4 ADD MSTORE PUSH1 0x20 DUP6 ADD CALLDATALOAD PUSH1 0x60 DUP4 ADD MSTORE PUSH1 0x40 DUP6 ADD CALLDATALOAD PUSH1 0x80 DUP4 ADD MSTORE PUSH1 0x60 DUP6 ADD CALLDATALOAD PUSH1 0xA0 DUP4 ADD MSTORE PUSH32 0x2B8EF14E80C98FC58A56A094152F1AA0CCAFD591918050708E0A9EAEFBC17CBF PUSH1 0xC0 DUP4 ADD MSTORE PUSH32 0x80E25738DA60DCEE2523D868CAB3622DD9EE9A984E47AAAFD35E103DA20CDC7 PUSH1 0xE0 DUP4 ADD MSTORE PUSH32 0x1720F82704FDB99DB60836B64D1A10CB14F1A76D9E13B97DB26410611ED72DB5 PUSH2 0x100 DUP4 ADD MSTORE PUSH31 0x1701870BD111D7A57D826FA763B92D1DC806104D26DE2841EB1B931AB018C2 PUSH2 0x120 DUP4 ADD MSTORE PUSH32 0x114DF11EB728EBCF85FD14EEFE309C647621BEEDB700A5726322C07FADDDE35F PUSH2 0x140 DUP4 ADD MSTORE PUSH32 0x158808EF752AA952987A3CAEC2E175132928FED6F3F775E494706E28DB2EE082 PUSH2 0x160 DUP4 ADD MSTORE PUSH1 0x0 DUP9 ADD MLOAD PUSH2 0x180 DUP4 ADD MSTORE PUSH1 0x20 PUSH1 0x0 ADD DUP9 ADD MLOAD PUSH2 0x1A0 DUP4 ADD MSTORE PUSH32 0x198E9393920D483A7260BFB731FB5D25F1AA493335A9E71297E485B7AEF312C2 PUSH2 0x1C0 DUP4 ADD MSTORE PUSH32 0x1800DEEF121F1E76426A00665E5C4479674322D4F75EDADD46DEBD5CD992F6ED PUSH2 0x1E0 DUP4 ADD MSTORE PUSH32 0x90689D0585FF075EC9E99AD690C3395BC4B313370B38EF355ACDADCD122975B PUSH2 0x200 DUP4 ADD MSTORE PUSH32 0x12C85EA5DB8C6DEB4AAB71808DCB408FE3D1E7690C43D37B4CE6CC0166FA7DAA PUSH2 0x220 DUP4 ADD MSTORE DUP6 CALLDATALOAD PUSH2 0x240 DUP4 ADD MSTORE PUSH1 0x20 DUP7 ADD CALLDATALOAD PUSH2 0x260 DUP4 ADD MSTORE PUSH32 0x219ADC7DD39BBB390A7D5F097555ABE0082EA95AA95800EC5F440496900EA0E7 PUSH2 0x280 DUP4 ADD MSTORE PUSH32 0x14606FECE2ACAF3907E0A5C94A34BB6575D034E1B61BF591C9F7C3376338FD34 PUSH2 0x2A0 DUP4 ADD MSTORE PUSH32 0x1D4018B3F8F637F4A7FBD77EE93724A045C8DA886C651FA0BA498001F1D9AC8A PUSH2 0x2C0 DUP4 ADD MSTORE PUSH32 0x295B8D967941319213E28C4F28E0A2FDF3B6ED804D1982E17C60B414E39F9DA3 PUSH2 0x2E0 DUP4 ADD MSTORE PUSH1 0x20 DUP3 PUSH2 0x300 DUP5 PUSH1 0x8 PUSH2 0x7D0 GAS SUB STATICCALL DUP3 MLOAD DUP2 AND SWAP4 POP POP POP POP SWAP6 SWAP5 POP POP POP POP POP JUMP JUMPDEST PUSH1 0x40 MLOAD PUSH2 0x380 DUP2 ADD PUSH1 0x40 MSTORE PUSH2 0x4A4 PUSH1 0x0 DUP5 ADD CALLDATALOAD PUSH2 0x67 JUMP JUMPDEST PUSH2 0x4B1 DUP2 DUP5 DUP7 DUP9 DUP11 PUSH2 0x106 JUMP JUMPDEST DUP1 PUSH1 0x0 MSTORE PUSH1 0x20 PUSH1 0x0 RETURN JUMPDEST PUSH1 0x0 DUP1 REVERT JUMPDEST PUSH1 0x0 DUP1 REVERT JUMPDEST PUSH1 0x0 DUP2 SWAP1 POP DUP3 PUSH1 0x20 PUSH1 0x2 MUL DUP3 ADD GT ISZERO PUSH2 0x4E1 JUMPI PUSH2 0x4E0 PUSH2 0x4C0 JUMP JUMPDEST JUMPDEST SWAP3 SWAP2 POP POP JUMP JUMPDEST PUSH1 0x0 DUP2 SWAP1 POP DUP3 PUSH1 0x40 PUSH1 0x2 MUL DUP3 ADD GT ISZERO PUSH2 0x503 JUMPI PUSH2 0x502 PUSH2 0x4C0 JUMP JUMPDEST JUMPDEST SWAP3 SWAP2 POP POP JUMP JUMPDEST PUSH1 0x0 DUP2 SWAP1 POP DUP3 PUSH1 0x20 PUSH1 0x1 MUL DUP3 ADD GT ISZERO PUSH2 0x525 JUMPI PUSH2 0x524 PUSH2 0x4C0 JUMP JUMPDEST JUMPDEST SWAP3 SWAP2 POP POP JUMP JUMPDEST PUSH1 0x0 DUP1 PUSH1 0x0 DUP1 PUSH2 0x120 DUP6 DUP8 SUB SLT ISZERO PUSH2 0x546 JUMPI PUSH2 0x545 PUSH2 0x4BB JUMP JUMPDEST JUMPDEST PUSH1 0x0 PUSH2 0x554 DUP8 DUP3 DUP9 ADD PUSH2 0x4C5 JUMP JUMPDEST SWAP5 POP POP PUSH1 0x40 PUSH2 0x565 DUP8 DUP3 DUP9 ADD PUSH2 0x4E7 JUMP JUMPDEST SWAP4 POP POP PUSH1 0xC0 PUSH2 0x576 DUP8 DUP3 DUP9 ADD PUSH2 0x4C5 JUMP JUMPDEST SWAP3 POP POP PUSH2 0x100 PUSH2 0x588 DUP8 DUP3 DUP9 ADD PUSH2 0x509 JUMP JUMPDEST SWAP2 POP POP SWAP3 SWAP6 SWAP2 SWAP5 POP SWAP3 POP JUMP JUMPDEST PUSH1 0x0 DUP2 ISZERO ISZERO SWAP1 POP SWAP2 SWAP1 POP JUMP JUMPDEST PUSH2 0x5A9 DUP2 PUSH2 0x594 JUMP JUMPDEST DUP3 MSTORE POP POP JUMP JUMPDEST PUSH1 0x0 PUSH1 0x20 DUP3 ADD SWAP1 POP PUSH2 0x5C4 PUSH1 0x0 DUP4 ADD DUP5 PUSH2 0x5A0 JUMP JUMPDEST SWAP3 SWAP2 POP POP JUMP INVALID LOG2 PUSH5 0x6970667358 0x22 SLT KECCAK256 0xCF AND ADDRESS SWAP15 0xE6 PUSH4 0x8755ECC6 CALLDATASIZE SWAP7 PUSH9 0x1F7F54CAFE11C6826F PUSH5 0xC59D26E6E9 DUP3 SWAP3 TLOAD SWAP1 PUSH5 0x736F6C6343 STOP ADDMOD SHR STOP CALLER "},"methodIdentifiers":{"verifyProof(uint256[2],uint256[2][2],uint256[2],uint256[1])":"43753b4d"}}}}}