{
  "_format": "hh-sol-artifact-1",
  "contractName": "Groth16Verifier",
  "sourceName": "contracts/Groth16Verifier.sol",
  "abi": [
    {
      "inputs": [
        {
          "internalType": "uint256[2]",
          "name": "_pA",
          "type": "uint256[2]"
        },
        {
          "internalType": "uint256[2][2]",
          "name": "_pB",
          "type": "uint256[2][2]"
        },
        {
          "internalType": "uint256[2]",
          "name": "_pC",
          "type": "uint256[2]"
        },
        {
          "internalType": "uint256[1]",
          "name": "_pubSignals",
          "type": "uint256[1]"
        }
      ],
      "name": "verifyProof",
      "outputs": [
        {
          "internalType": "bool",
          "name": "",
          "type": "bool"
        }
      ],
      "stateMutability": "view",
      "type": "function"
    }
  ],
  "bytecode": "0x6080604052348015600f57600080fd5b506106008061001f6000396000f3fe608060405234801561001057600080fd5b506004361061002b5760003560e01c806343753b4d14610030575b600080fd5b61004a6004803603810190610045919061052b565b610060565b60405161005791906105af565b60405180910390f35b600061048c565b7f30644e72e131a029b85045b68181585d2833e84879b9709143e1f593f00000018110610098576000805260206000f35b50565b600060405183815284602082015285604082015260408160608360076107d05a03fa9150816100ce576000805260206000f35b825160408201526020830151606082015260408360808360066107d05a03fa9150816100fe576000805260206000f35b505050505050565b600060808601600087017f1bb1ce035463c2ec0054cceb93426729bef99db5f097690f92e0d1cbfa5f234581527f1ef19517a415fba8ee20e6f81133fd0448a94ad93802fed4306c2d34f0cdcb7e60208201526101a960008801357f1b3e2eb788dcf34174809cc12f90a8cf7036c1888c15a07398936ca3fdefc13e7f19c852c21ea4cc7a4a31a115645b7fd5686e5c0233a842f44efa656e9ba266bb8461009b565b833582527f30644e72e131a029b85045b68181585d97816a916871ca8d3c208c16d87cfd4760208501357f30644e72e131a029b85045b68181585d97816a916871ca8d3c208c16d87cfd4703066020830152843560408301526020850135606083015260408501356080830152606085013560a08301527f2b8ef14e80c98fc58a56a094152f1aa0ccafd591918050708e0a9eaefbc17cbf60c08301527f080e25738da60dcee2523d868cab3622dd9ee9a984e47aaafd35e103da20cdc760e08301527f1720f82704fdb99db60836b64d1a10cb14f1a76d9e13b97db26410611ed72db56101008301527e1701870bd111d7a57d826fa763b92d1dc806104d26de2841eb1b931ab018c26101208301527f114df11eb728ebcf85fd14eefe309c647621beedb700a5726322c07faddde35f6101408301527f158808ef752aa952987a3caec2e175132928fed6f3f775e494706e28db2ee082610160830152600088015161018083015260206000018801516101a08301527f198e9393920d483a7260bfb731fb5d25f1aa493335a9e71297e485b7aef312c26101c08301527f1800deef121f1e76426a00665e5c4479674322d4f75edadd46debd5cd992f6ed6101e08301527f090689d0585ff075ec9e99ad690c3395bc4b313370b38ef355acdadcd122975b6102008301527f12c85ea5db8c6deb4aab71808dcb408fe3d1e7690c43d37b4ce6cc0166fa7daa610220830152853561024083015260208601356102608301527f219adc7dd39bbb390a7d5f097555abe0082ea95aa95800ec5f440496900ea0e76102808301527f14606fece2acaf3907e0a5c94a34bb6575d034e1b61bf591c9f7c3376338fd346102a08301527f1d4018b3f8f637f4a7fbd77ee93724a045c8da886c651fa0ba498001f1d9ac8a6102c08301527f295b8d967941319213e28c4f28e0a2fdf3b6ed804d1982e17c60b414e39f9da36102e08301526020826103008460086107d05a03fa82518116935050505095945050505050565b60405161038081016040526104a46000840135610067565b6104b1818486888a610106565b8060005260206000f35b600080fd5b600080fd5b6000819050826020600202820111156104e1576104e06104c0565b5b92915050565b600081905082604060020282011115610503576105026104c0565b5b92915050565b600081905082602060010282011115610525576105246104c0565b5b92915050565b6000806000806101208587031215610546576105456104bb565b5b6000610554878288016104c5565b9450506040610565878288016104e7565b93505060c0610576878288016104c5565b92505061010061058887828801610509565b91505092959194509250565b60008115159050919050565b6105a981610594565b82525050565b60006020820190506105c460008301846105a0565b9291505056fea2646970667358221220cf16309ee6638755ecc63696681f7f54cafe11c6826f64c59d26e6e982925c9064736f6c634300081c0033",
  "linkReferences": {},
  "deployedLinkReferences": {}
}